:0300000002070CE8
:0C070C00787FE4F6D8FD75817A0207536F
:100E3400102930313233343536373839414243445E
:020E4400454621
:10023600EFB4080040030203BC900246F828287376
:1002460002025E02028B0202B80202E502031202F9
:10025600033F020369020393EB146014146019143C
:10026600601C240360030203BCEDF45294529322F3
:10027600ED4294EDF4529322EDF452948003ED4254
:1002860094ED429322EB14601414601914601C243C
:100296000360030203BCEDF45292529122ED4292A6
:1002A600EDF4529122EDF452928003ED4292ED422A
:1002B6009122EB14601414601914601C240360036B
:1002C6000203BCEDF45296529522ED4296EDF4529D
:1002D6009522EDF452968003ED4296ED429522EB7F
:1002E60014601414601914601C240360030203BC18
:1002F600EDF452B252B122ED42B2EDF452B122ED1A
:10030600F452B28003ED42B2ED42B122EB14601416
:1003160014601914601C240360030203BCEDF4523C
:10032600B352B422ED42B4EDF452B322EDF452B41A
:100336008003ED42B4ED42B322EB14601114601653
:100346001460192403706FEDF452CA52C922ED42AB
:10035600CAEDF452C922EDF452CA8003ED42CAED49
:1003660042C922EB1460111460161460192403703C
:1003760045EDF452CC52CB22ED42CCEDF452CB22D9
:10038600EDF452CC8003ED42CCED42CB22EB14606F
:10039600111460161460192403701BEDF452E25216
:1003A600E122ED42E2EDF452E122EDF452E2800365
:0703B600ED42E2ED42E122FD
:1011B7008F738D74EB7003020B4FAD74AF73120A0C
:0211C700022202
:100B4F00EFB408005048900B5CF8282873020B7420
:100B5F00020B79020B7E020B83020B88020B8D02B4
:100B6F000B92020B9790FE28802190FE29801C90FB
:100B7F00FE2A801790FE2B801290FE2C800D90FE87
:0F0B8F002D800890FE2E800390FE2FE04DF02267
:100A0200EFB40800504D900A0FF8282873020A2705
:100A1200020A2C020A31020A36020A3B020A400288
:100A22000A45020A4A90FE28802190FE29801C90E5
:100A3200FE2A801790FE2B801290FE2C800D90FED5
:100A42002D800890FE2E800390FE2FE0FFEDF4FE35
:040A5200EF5EF02241
:1011C9008F758D76EB7003020B9EAD76AF75120AA3
:0211D90056229C
:100B9E00EFB408005048900BABF8282873020BC333
:100BAE00020BC8020BCD020BD2020BD7020BDC02DA
:100BBE000BE1020BE690FE20802190FE21801C901E
:100BCE00FE22801790FE23801290FE24800D90FE50
:0F0BDE0025800890FE26800390FE27E04DF02230
:100A5600EFB40800504D900A63F8282873020A7B09
:100A6600020A80020A85020A8A020A8F020A940290
:100A76000A99020A9E90FE20802190FE21801C90F9
:100A8600FE22801790FE23801290FE24800D90FE99
:100A960025800890FE26800390FE27E0FFEDF4FEF9
:040AA600EF5EF022ED
:1011DB008F778D78EB7003020AAAAD78AF77120B7D
:0211EB00ED22F3
:100AAA00EFB40800504D900AB7F8282873020ACF0D
:100ABA00020AD4020AD9020ADE020AE3020AE80298
:100ACA000AED020AF290FE10802190FE11801C901D
:100ADA00FE12801790FE13801290FE14800D90FE75
:100AEA0015800890FE16800390FE17E0FFEDF4FED5
:040AFA00EF5EF02299
:100BED00EFB408005048900BFAF8282873020C1245
:100BFD00020C17020C1C020C21020C26020C2B02FB
:100C0D000C30020C3590FE10802190FE11801C904E
:100C1D00FE12801790FE13801290FE14800D90FE30
:0F0C2D0015800890FE16800390FE17E04DF02210
:1011ED008F798D7AEB7003020C3CAD7AAF79120DCD
:0211FD006A2264
:100C3C00EFB408005046900C49F8282873020C6158
:100C4C00020C66020C6B020C70020C75020C7A0220
:100C5C000C7F020C84EDF4528022EDF4529022EDC4
:100C6C00F452A022EDF452B022EDF452C022EDF475
:0D0C7C0052C822EDF452E822EDF452F822A5
:100D6A00EFB40800503E900D77F8282873020D8FD3
:100D7A00020D93020D97020D9B020D9F020DA30215
:100D8A000DA7020DABED428022ED429022ED42A06A
:100D9A0022ED42B022ED42C022ED42C822ED42E8E5
:050DAA0022ED42F822D9
:100DAF00EFB40800503E900DBCF8282873020DD404
:100DBF00020DD8020DDC020DE0020DE4020DE80277
:100DCF000DEC020DF0ED628022ED629022ED62A03B
:100DDF0022ED62B022ED62C022ED62C822ED62E820
:050DEF0022ED62F82274
:10079800EFB4080050779007A5F82828730207BD22
:1007A8000207C80207D30207DE0207E90207F402BC
:1007B80007FF02080AE5805D60037F01227F0022AF
:1007C800E5905D60037F01227F0022E5A05D600364
:1007D8007F01227F0022E5B05D60037F01227F0058
:1007E80022E5C05D60037F01227F0022E5C85D60CD
:1007F800037F01227F0022E5E85D60037F01227FFD
:100808000022E5F85D60037F01227F00227F00223D
:100DF400EFB408005037900E01F8282873020E193A
:100E0400020E1C020E1F020E22020E25020E2802E2
:100E14000E2B020E2EAF8022AF9022AFA022AFB0D5
:100E240022AFC022AFC822AFE822AFF8227F00224F
:0612280090FE01E4F0223B
:070E460002700BB8017203FA
:03122E00C2AF222A
:03123100D2AF2217
:10113F00AD71AC70ED1D70011C144C70F7EF1F708A
:06114F00011E144E70EABF
:011155002277
:0D120E00AD72DDFEEF1F70011E144E70F377
:01121B0022B0
:0405A1008C668D6770
:1005A500756B80756AC37569C9756801E4F56FF582
:1005B5006EF56DF56C90000412003F14600C14602C
:1005C5000B14600624037017800A8008E4756FFF1A
:1005D500F56E8007E4756FFF756EFFF56DF56C12AE
:1005E50000267018AF6BAE6AAD69AC687B0CFAF982
:1005F500F812012F8F6B8E6A8D698C687B407A4269
:10060500790F7800AF6BAE6AAD69AC6812012FA89F
:1006150004A905AA06AB07AE66AF67E4FCFD1200A8
:10062500A48F6B8E6A8D698C68AF6FAE6EAD6DAC45
:100635006CAB6BAA6AA969A868C31201C14004E43E
:10064500FEFF22E56F2401FFE4356EFEC3EF956BD7
:05065500FFEE956AFEB6
:01065A00227D
:100884008F248B258A268927120026FD12104DAB52
:1008940025AA26A92790000112003FFDAF241210BB
:1008A40071AB25AA26A92790000412003FFDAF24AE
:1008B4001210EEAB25AA26A92790000512006CFDA4
:1008C400ACF0AF24121156AB25AA26A9279000023A
:1008D40012003FFDAF2412117EAB25AA26A9279052
:0B08E400000312003FFDAF240209AA30
:10116B00EF14600904700BED24FF928C22ED24FF29
:03117B00928E222F
:10104D00EF14601104701CEDC43333335480FFE58D
:10105D008E547F800BEDC4333354C0FFE58E54BFE7
:04106D004FF58E228B
:10107100EF14600F04701AED25E025E0FFE58954B7
:10108100FB800BEDC4333354C0FFE58954BF4FF5EA
:021091008922B2
:1010EE00EF14600B047014E58954FC4DF58922ED64
:0C10FE00C454F0FFE58954CF4FF589225F
:10115600EF14600A04700DECF58CEDF58A22ECF5BF
:051166008DEDF58B2268
:10117E00EF14600904700BED24FF92A922ED24FFF9
:03118E0092AB22FF
:1009AA00EF146029047050ED540170047F01800235
:1009BA007F00EF24FFB392B9ED540260047F0180F7
:1009CA00027F00EF25E0FFE5B754FD8027ED5401D3
:1009DA0070047F0180027F00EF24FFB392BBED54C5
:1009EA000260047F0180027F00EF33333354F8FF43
:0809FA00E5B754F74FF5B722F1
:1010B400EF14600C047012AF8CEFFEAD8AEDFF22CA
:0D10C400AF8DEFFEAD8BEDFF22E4FEFF22AD
:0F11FF00EF146006047006A28D22A28F22C32275
:0A04DB008C5C8D5D8B598A5A895B99
:1004E5007561807560C3755FC9755E01E47565FFEB
:1004F5007564FFF563F5621200267018AF61AE6092
:10050500AD5FAC5E7B0CFAF9F812012F8F618E603E
:100515008D5F8C5E7B407A42790F7800AF61AE606B
:10052500AD5FAC5E12012FA804A905AA06AB07AE04
:100535005CAF5DE4FCFD1200A4C006C007AB59AA80
:100545005AA95B90000212003F2401FFE433AB0778
:10055500FAE4F9F8D007D00612012F8F618E608D6D
:100565005F8C5EAF65AE64AD63AC62AB61AA60A93A
:100575005FA85EC31201C1500CE4FFFEFDFCA85E3E
:100585001201C15004E4FEFF22E5652401FFE435B4
:0B05950064FEC3EF9561FFEE9560FE71
:0105A0002238
:100951008F248B258A268927120026FD120FF1ABE1
:1009610025AA26A92790000112003FFDAF24120FEE
:100971001CAB25AA26A92790000212003FFDAF2437
:10098100120003AB25AA26A92790000312003FFD00
:10099100AF24120FBEAB25AA26A92790000412008E
:0909A1006CFDACF0AF24021093D0
:100F1C00EF24FD601614601F24027029ED33333367
:100F2C0054F8FFE58E54F74FF58E22ED25E025E0C1
:100F3C00FFE5D154FB800BEDC4333354C0FFE5D136
:060F4C0054BF4FF5D12255
:100FF100EF24FD601514601C24027025ED25E02509
:10100100E0FFE58E54FB4FF58E22ED25E0FFE5D1A3
:1010110054FD800AEDC43354E0FFE5D154DF4FF5B0
:02102100D122DA
:10000300EF24FD600D1460102402701190FEA2ED28
:0E001300F02290FEA3EDF02290FEA4EDF0226C
:10109300EF24FD600E14601224027014ECF5D6EDFB
:1010A300F5D722ECF5D4EDF5D522ECF5D2EDF5D359
:0110B300221A
:100FBE00EF24FD601314601C24027026ED25E0253D
:100FCE00E0FFE5AF54FB8017EDC43354E0FFE5AF0F
:100FDE0054DF800BEDC4333354C0FFE5AF54BF4F25
:030FEE00F5AF223A
:100F5200EF24FD601414601E24027029EDC454F0C5
:100F6200FFE58E54EF4FF58E22ED33333354F8FF05
:100F7200E5D154F7800CEDC43333335480FFE5D10F
:060F8200547F4FF5D1225F
:100E4D001039303132333435363738394142434435
:020E5D00454608
:1008EF00EF14603E14604314604A24037053ED54B8
:1008FF000160047F0180027F00EFC4333354C0FFD7
:10090F00E5A254BF4FF5A2ED540260047F018002AF
:10091F007F00EFC43333335480FFE5A2547F4FF58C
:10092F00A222E5BA54FE4DF5BA22ED25E0FFE5BA55
:10093F0054FD800AED25E025E0FFE5BA54FB4FF5A5
:02094F00BA22CA
:100F8800EF14601014601514601F24037027ED24FB
:100F9800FF92AC22E5AF54FE4DF5AF22ED3333336B
:100FA80054F8FFE5AF54F78009EDC454F0FFE5AFFE
:060FB80054EF4FF5AF22DB
:10065B00EF14603614605814607A240360030207A9
:10066B000BED540170047F0180027F00EF24FFB378
:10067B0092BCED540260047F0180027F00EFC454F2
:10068B00F0FFE5B754EF4FF5B722ED540160047F4F
:10069B000180027F00E5B554FE4FF5B5ED540260C5
:1006AB00047F0180027F00E5B654FE4FF5B622EDC4
:1006BB00540160047F0180027F00E5DF54FE4FF59B
:1006CB00DFED540260047F0180027F00E5EE54FEF3
:1006DB004FF5EE22ED540160047F0180027F00EFA5
:1006EB0025E0FFE5DF54FD4FF5DFED540260047F9D
:1006FB000180027F00EF25E0FFE5EE54FD4FF5EEA4
:01070B0022CB
:100D2100EF24FE601C14602E2403703CBD010453AB
:100D31008EFE22ED64027030E58E54FE4401F58E84
:100D410022BD020453ACBF22ED6403701BE5AC5419
:100D5100BF4440F5AC22BD02045384BF22BD040848
:090D6100E58454BF4440F58422EE
:100C8900EF1460191460261460332403703EEDC418
:100C9900333354C0FFE598543F4FF59822EDC433E0
:100CA90033335480FFE59A547F4FF59A22EDC433CC
:100CB90033335480FFE5AC547F4FF5AC22EDC43398
:0D0CC90033335480FFE584547F4FF58422BF
:100E7200EF14601014601A1460242403702CED2403
:100E8200FF929C22EDC454F0FFE59A54EF4FF59A7D
:100E920022EDC454F0FFE5AC54EF4FF5AC22EDC4A3
:0B0EA20054F0FFE58454EF4FF584226C
:10119100EF700FEDC43333335480FFE587547F4F35
:0311A100F58722AD
:0603BD008B148A1589165D
:1003C300120026FF90000712003FFD120F88AB14A6
:1003D300AA15A916120026FF90000812003FFD126D
:1003E300065BAB14AA15A916120026FF90000A1289
:1003F300003FFD121191AB14AA15A916120026FF96
:1004030090000912003FFD120C89AB14AA15A9161E
:10041300120026FF90000B12003FFD120E72AB1468
:10042300AA15A916120026FF90000612003FFD121E
:100433000D21AB14AA15A916120026FF9000011274
:10044300003FFD1208EFAB14AA15A916900006127F
:10045300003F24FE24FD50322404707BE4F518F59C
:1004630019F51AF51B7517019000021201D27528B0
:1004730001120CD68E1C8F1D7B007A0079177F0129
:100483001208847D017F0102116BE4F51FF52175CC
:100493001E01F520AB14AA15A9169000021201D271
:1004A30090000612003FF528120CD68E228F23AB44
:1004B30014AA15A91690000612003FFF7B007A00CC
:1004C300791E120951AB14AA15A916900006120041
:0704D3003FFF7D01120F52F3
:0104DA0022FF
:100CD6008F278E268D258C24E52824FE24FD501C86
:100CE600240470337FE07E707D727C00AB27AA26D9
:100CF600A925A824D31201C14002801BAB27AA262E
:100D0600A925A8247FE07E707D727C0012012FC386
:0B0D1600E49FFFE49EFE22E4FEFF22AB
:1010D100EF14600D14600D14600D2403700CAF99B2
:0D10E10022AF9B22AFAD22AF85227F0022FF
:10112500EF14601014600D14600A24037009A2986E
:0A113500E433FF22E4FF227F0022D2
:1011A400EF14600D14600A14600824037004C298DC
:0311B400222222D2
:100EAD00EF14601014601814602024037027A299A9
:100EBD00E433FF22E59A30E0037F01227F0022E533
:100ECD00AC30E0037F01227F0022E58430E0037F18
:080EDD0001227F00227F0022A8
:100EE500EF14601214601A146022240370288D997F
:100EF5003099FDC299228D9BE59A30E0FB539AFE0D
:100F0500228DADE5AC30E0FB53ACFE228D85E5844A
:070F150030E0FB5384FE22D3
:10110A00AE05AC07EEC4540F2439F8E6FD120EE51D
:0B111A00EE540F2439F8E6FD020EE54C
:10081800EF14601F1460341460492403705D1200E3
:10082800266058F5993099FDC299740129F9E43A7E
:10083800FA80EB1200266043F59BE59A30E0FB5303
:100848009AFE740129F9E43AFA80E8120026602B2E
:10085800F5ADE5AC30E0FB53ACFE740129F9E43AA0
:10086800FA80E81200266013F585E58430E0FB5332
:0C08780084FE740129F9E43AFA80E822B9
:100E5F001049303132333435363738394142434413
:020E6F004546F6
:10102300E4F508F509750D80750C25F50BF50A75C2
:101033000E02750F01F510751101F512751301FB01
:0A1043007A0079081203BD02123191
:0C121C001210237FF47E0112113F80F7B6
:03002300020AFED0
:100AFE00C0E0C0F0C083C082C0D075D000C000C0BE
:0D0B0E0001C002C003C004C005C006C0073E
:100B1B00E4FF121125EF6011E4FF1211A4E4FF12A0
:090B2B0010D1AD07E4FF120EE544
:100B3400D007D006D005D004D003D002D001D00015
:0B0B4400D0D0D082D083D0F0D0E032BF
:1007180002121CE493A3F8E493A34003F68001F2C9
:1007280008DFF48029E493A3F85407240CC8C333E2
:10073800C4540F4420C8834004F456800146F6DFB1
:10074800E4800B0102040810204080900E34E47EFF
:10075800019360BCA3FF543F30E509541FFEE493A6
:10076800A360010ECF54C025E060A840B8E493A36D
:10077800FAE493A3F8E493A3C8C582C8CAC583CA98
:10078800F0A3C8C582C8CAC583CADFE9DEE780BE50
:010E71000080
:10002600BB010689828A83E0225002E722BBFE02D8
:09003600E32289828A83E493220B
:10003F00BB010CE58229F582E5833AF583E0225076
:10004F0006E92582F8E622BBFE06E92582F8E222C0
:0D005F00E58229F582E5833AF583E49322DA
:10006C00BB0110E58229F582E5833AF583E0F5F0D2
:10007C00A3E0225009E92582F886F008E622BBFEAF
:10008C000AE92582F8E2F5F008E222E5832AF583F5
:08009C00E993F5F0A3E99322BA
:1000A400E88FF0A4CC8BF0A42CFCE98EF0A42CFCFB
:1000B4008AF0EDA42CFCEA8EF0A4CDA8F08BF0A479
:1000C4002DCC3825F0FDE98FF0A42CCD35F0FCEBD8
:1000D4008EF0A4FEA9F0EB8FF0A4CFC5F02ECD399D
:0F00E400FEE43CFCEAA42DCE35F0FDE43CFC220A
:1000F30075F008758200EF2FFFEE33FECD33CDCCC4
:1001030033CCC58233C5829BED9AEC99E582984046
:100113000CF582EE9BFEED9AFDEC99FC0FD5F0D623
:10012300E4CEFBE4CDFAE4CCF9A88222B800C1B94D
:100133000059BA002DEC8BF084CFCECDFCE5F0CB8B
:10014300F97818EF2FFFEE33FEED33FDEC33FCEBC4
:1001530033FB10D703994004EB99FB0FD8E5E4F97F
:10016300FA227818EF2FFFEE33FEED33FDEC33FC6C
:10017300C933C910D7059BE99A4007EC9BFCE99A60
:10018300F90FD8E0E4C9FAE4CCFB2275F010EF2FA5
:10019300FFEE33FEED33FDCC33CCC833C810D707A5
:1001A3009BEC9AE899400AED9BFDEC9AFCE899F8E0
:0E01B3000FD5F0DAE4CDFBE4CCFAE4C8F92273
:1001C100EB9FF5F0EA9E42F0E99D42F0E89C45F094
:0101D100220B
:1001D200BB010DE58229F582E5833AF58302020E21
:1001E2005007E92582F8020202BBFE07E92582F8E0
:1001F20002021AE58229F582E5833AF58302022694
:0C020200E6FC08E6FD08E6FE08E6FF2228
:0C020E00E0FCA3E0FDA3E0FEA3E0FF2263
:0C021A00E2FC08E2FD08E2FE08E2FF2220
:10022600E493FC740193FD740293FE740393FF221E
:00000001FF
