:0300000002018A70
:0C018A00787FE4F6D8FD7581110201D1E8
:10000300EFB408004003020189900013F828287315
:1000130002002B0200580200850200B20200DF0238
:10002300010C020136020160EB1460141460191410
:10003300601C24036003020189EDF452945293225D
:10004300ED4294EDF4529322EDF452948003ED4289
:1000530094ED429322EB14601414601914601C2471
:10006300036003020189EDF45292529122ED429210
:10007300EDF4529122EDF452928003ED4292ED425F
:100083009122EB14601414601914601C24036003A0
:10009300020189EDF45296529522ED4296EDF45207
:1000A3009522EDF452968003ED4296ED429522EBB4
:1000B30014601414601914601C2403600302018982
:1000C300EDF452B252B122ED42B2EDF452B122ED4F
:1000D300F452B28003ED42B2ED42B122EB1460144C
:1000E30014601914601C24036003020189EDF452A7
:1000F300B352B422ED42B4EDF452B322EDF452B450
:100103008003ED42B4ED42B322EB14601114601688
:100113001460192403706FEDF452CA52C922ED42E0
:10012300CAEDF452C922EDF452CA8003ED42CAED7E
:1001330042C922EB14601114601614601924037071
:1001430045EDF452CC52CB22ED42CCEDF452CB220E
:10015300EDF452CC8003ED42CCED42CB22EB1460A4
:10016300111460161460192403701BEDF452E2524B
:10017300E122ED42E2EDF452E122EDF452E280039A
:07018300ED42E2ED42E12232
:1005F4008F088D0943BA80EBAD09AF08700512036B
:0A06040092800312029653BA7F227F
:10039200EFB40800504890039FF82828730203B76F
:1003A2000203BC0203C10203C60203CB0203D00252
:1003B20003D50203DA90FE28802190FE29801C904A
:1003C200FE2A801790FE2B801290FE2C800D90FE4C
:0F03D2002D800890FE2E800390FE2FE04DF0222C
:10029600EFB40800504D9002A3F82828730202BB61
:1002A6000202C00202C50202CA0202CF0202D40240
:1002B60002D90202DE90FE28802190FE29801C9041
:1002C600FE2A801790FE2B801290FE2C800D90FE49
:1002D6002D800890FE2E800390FE2FE0FFEDF4FEA9
:0402E600EF5EF022B5
:10060E008F0A8D0B43BA80EBAD0BAF0A7005120348
:0A061E00E180031202EA53BA7F22C2
:1003E100EFB4080050489003EEF828287302040681
:1003F10002040B02041002041502041A02041F0273
:10040100042402042990FE20802190FE21801C906A
:10041100FE22801790FE23801290FE24800D90FE14
:0F04210025800890FE26800390FE27E04DF022F4
:1002EA00EFB40800504D9002F7F828287302030F64
:1002FA0002031402031902031E0203230203280243
:10030A00032D02033290FE20802190FE21801C9052
:10031A00FE22801790FE23801290FE24800D90FE0C
:10032A0025800890FE26800390FE27E0FFEDF4FE6C
:04033A00EF5EF02260
:100628008F0C8D0D43BA80EBAD0DAF0C7005120326
:0A0638003E800312043053BA7F2203
:10033E00EFB40800504D90034BF828287302036366
:10034E0002036802036D02037202037702037C024A
:10035E00038102038690FE10802190FE11801C9076
:10036E00FE12801790FE13801290FE14800D90FEE8
:10037E0015800890FE16800390FE17E0FFEDF4FE48
:04038E00EF5EF0220C
:10043000EFB40800504890043DF828287302045592
:1004400002045A02045F02046402046902046E0298
:10045000047302047890FE10802190FE11801C909D
:10046000FE12801790FE13801290FE14800D90FEF5
:0F04700015800890FE16800390FE17E04DF022D5
:100642008F0E8D0FEB700302047FAD0FAF0E1204FD
:02065200CC22B8
:10047F00EFB40800504690048CF82828730204A4A7
:10048F000204A90204AE0204B30204B80204BD02BE
:10049F0004C20204C7EDF4528022EDF4529022ED13
:1004AF00F452A022EDF452B022EDF452C022EDF43A
:0D04BF0052C822EDF452E822EDF452F8226A
:1004CC00EFB40800503E9004D9F82828730204F1C8
:1004DC000204F50204F90204FD02050102050502FD
:1004EC00050902050DED428022ED429022ED42A05D
:1004FC0022ED42B022ED42C022ED42C822ED42E88C
:05050C0022ED42F8227F
:10051100EFB40800503E90051EF8282873020536F6
:1005210002053A02053E02054202054602054A025B
:10053100054E020552ED628022ED629022ED62A02D
:1005410022ED62B022ED62C022ED62C822ED62E8C6
:0505510022ED62F8221A
:10021600EFB408005077900223F828287302023BB7
:1002260002024602025102025C02026702027202E6
:10023600027D020288E5805D60037F01227F002245
:10024600E5905D60037F01227F0022E5A05D6003EB
:100256007F01227F0022E5B05D60037F01227F00DF
:1002660022E5C05D60037F01227F0022E5C85D6054
:10027600037F01227F0022E5E85D60037F01227F84
:100286000022E5F85D60037F01227F00227F0022C5
:10055600EFB408005037900563F828287302057B2E
:1005660002057E02058102058402058702058A02CC
:10057600058D020590AF8022AF9022AFA022AFB0CA
:1005860022AFC022AFC822AFE822AFF8227F0022F6
:060654000110200111401D
:1005D400E4FDFCE4FBFAC3EB9FEA9E50070BBB006F
:0F05E400010A80F20DBD00010CBC13E7BD88E4D5
:0105F30022E5
:10059600E4FBAD107F04120003E4FBAD117F0412EF
:1005A6000003AD107F0412047FAD117F0412047F97
:1005B6007F647E001205D4AD107F041204CCAD1109
:0E05C6007F041204CC7F647E001205D480D422
:10019600020596E493A3F8E493A34003F68001F2E4
:1001A60008DFF48029E493A3F85407240CC8C3336A
:1001B600C4540F4420C8834004F456800146F6DF39
:1001C600E4800B0102040810204080900654E47E6F
:1001D600019360BCA3FF543F30E509541FFEE4932E
:1001E600A360010ECF54C025E060A840B8E493A3F5
:1001F600FAE493A3F8E493A3C8C582C8CAC583CA20
:10020600F0A3C8C582C8CAC583CADFE9DEE780BED7
:01065A00009F
:00000001FF
