:030000000204B542
:0C04B500787FE4F6D8FD7581350204FC68
:1001BA00EFB4080040030203409001CAF8282873EC
:1001CA000201E202020F02023C02026902029602E4
:1001DA0002C30202ED020317EB146014146019142F
:1001EA00601C24036003020340EDF45294529322EC
:1001FA00ED4294EDF4529322EDF452948003ED42D1
:10020A0094ED429322EB14601414601914601C24B8
:10021A00036003020340EDF45292529122ED42929E
:10022A00EDF4529122EDF452928003ED4292ED42A6
:10023A009122EB14601414601914601C24036003E7
:10024A00020340EDF45296529522ED4296EDF45295
:10025A009522EDF452968003ED4296ED429522EBFB
:10026A0014601414601914601C2403600302034010
:10027A00EDF452B252B122ED42B2EDF452B122ED96
:10028A00F452B28003ED42B2ED42B122EB14601493
:10029A0014601914601C24036003020340EDF45235
:1002AA00B352B422ED42B4EDF452B322EDF452B497
:1002BA008003ED42B4ED42B322EB146011146016D0
:1002CA001460192403706FEDF452CA52C922ED4228
:1002DA00CAEDF452C922EDF452CA8003ED42CAEDC6
:1002EA0042C922EB146011146016146019240370B9
:1002FA0045EDF452CC52CB22ED42CCEDF452CB2256
:10030A00EDF452CC8003ED42CCED42CB22EB1460EB
:10031A00111460161460192403701BEDF452E25292
:10032A00E122ED42E2EDF452E122EDF452E28003E1
:07033A00ED42E2ED42E12279
:100C16008F2D8D2EEB70030207D9AD2EAF2D120648
:020C2600DD22CD
:1007D900EFB4080050489007E6F82828730207FE8E
:1007E90002080302080802080D020812020817028B
:1007F900081C02082190FE28802190FE29801C9067
:10080900FE2A801790FE2B801290FE2C800D90FE00
:0F0819002D800890FE2E800390FE2FE04DF022E0
:1006DD00EFB40800504D9006EAF82828730207027F
:1006ED0002070702070C02071102071602071B0279
:1006FD00072002072590FE28802190FE29801C905E
:10070D00FE2A801790FE2B801290FE2C800D90FEFD
:10071D002D800890FE2E800390FE2FE0FFEDF4FE5D
:04072D00EF5EF02269
:100C28008F2F8D30EB7003020828AD30AF2F1207DD
:020C3800312267
:10082800EFB408005048900835F828287302084D9E
:1008380002085202085702085C02086102086602B0
:10084800086B02087090FE20802190FE21801C9089
:10085800FE22801790FE23801290FE24800D90FEC9
:0F08680025800890FE26800390FE27E04DF022A9
:10073100EFB40800504D90073EF828287302075681
:1007410002075B02076002076502076A02076F0280
:10075100077402077990FE20802190FE21801C9071
:10076100FE22801790FE23801290FE24800D90FEC1
:1007710025800890FE26800390FE27E0FFEDF4FE21
:04078100EF5EF02215
:100C3A008F318D32EB7003020785AD32AF31120866
:020C4A0077220F
:10078500EFB40800504D900792F82828730207AA85
:100795000207AF0207B40207B90207BE0207C30288
:1007A50007C80207CD90FE10802190FE11801C9095
:1007B500FE12801790FE13801290FE14800D90FE9D
:1007C50015800890FE16800390FE17E0FFEDF4FEFD
:0407D500EF5EF022C1
:10087700EFB408005048900884F828287302089CB1
:100887000208A10208A60208AB0208B00208B502D6
:1008970008BA0208BF90FE10802190FE11801C90BC
:1008A700FE12801790FE13801290FE14800D90FEAA
:0F08B70015800890FE16800390FE17E04DF0228A
:100C4C008F338D34EB70030208C6AD34AF33120909
:020C5C005C2218
:1008C600EFB4080050469008D3F82828730208EBC6
:1008D6000208F00208F50208FA0208FF02090402FB
:1008E600090902090EEDF4528022EDF4529022ED30
:1008F600F452A022EDF452B022EDF452C022EDF4EF
:0D09060052C822EDF452E822EDF452F8221E
:10095C00EFB40800503E900969F828287302098109
:10096C0002098502098902098D0209910209950281
:10097C00099902099DED428022ED429022ED42A0A0
:10098C0022ED42B022ED42C022ED42C822ED42E8F7
:05099C0022ED42F822EB
:1009A100EFB40800503E9009AEF82828730209C63A
:1009B1000209CA0209CE0209D20209D60209DA02E3
:1009C10009DE0209E2ED628022ED629022ED62A071
:1009D10022ED62B022ED62C022ED62C822ED62E832
:0509E10022ED62F82286
:10054100EFB40800507790054EF82828730205662D
:1005510002057102057C02058702059202059D02D2
:1005610005A80205B3E5805D60037F01227F0022BB
:10057100E5905D60037F01227F0022E5A05D6003BD
:100581007F01227F0022E5B05D60037F01227F00B1
:1005910022E5C05D60037F01227F0022E5C85D6026
:1005A100037F01227F0022E5E85D60037F01227F56
:1005B1000022E5F85D60037F01227F00227F002297
:100A2B00EFB408005037900A38F8282873020A50A0
:100A3B00020A53020A56020A59020A5C020A5F02B0
:100A4B000A62020A65AF8022AF9022AFA022AFB03C
:100A5B0022AFC022AFC822AFE822AFF8227F00221C
:0600030090FE01E4F02272
:070C7B00022A0BB8012C0353
:030C8B00C2AF22D3
:030C8E00D2AF22C0
:100BC400AD2BAC2AED1D70011C144C70F7EF1F7097
:060BD400011E144E70EA40
:010BDA0022F8
:0D0C6D00AD2CDDFEEF1F70011E144E70F364
:010C7A002257
:040341008C0F8D1080
:100345007514807513C37512C9751101E4F518F597
:1003550017F516F51590000412002714600C1460AB
:100365000B14600624037017800A8008E47518FFD3
:10037500F5178007E47518FF7517FFF516F51512C3
:10038500000E7018AF14AE13AD12AC117B0CFAF958
:10039500F81201178F148E138D128C117B407A423F
:1003A500790F7800AF14AE13AD12AC11120117A876
:1003B50004A905AA06AB07AE0FAF10E4FCFD1200B9
:1003C5008C8F148E138D128C11AF18AE17AD16AC21
:1003D50015AB14AA13A912A811C31201A94004E46C
:1003E500FEFF22E5182401FFE43517FEC3EF95143F
:0503F500FFEE9513FE70
:0103FA0022E0
:1005C1008F0F8B108A11891212000EFD120B06ABD0
:1005D10010AA11A912900001120027FDAF0F120BF2
:1005E1002AAB10AA11A912900004120027FDAF0F27
:1005F100120BA8AB10AA11A912900005120054FD0C
:10060100ACF0AF0F120BDBAB10AA11A912900002D4
:10061100120027FDAF0F120C03AB10AA11A9129003
:0B0621000003120027FDAF0F0206854A
:100BF000EF14600904700BED24FF928C22ED24FFAA
:030C0000928E22AF
:100B0600EF14601104701CEDC43333335480FFE5D9
:100B16008E547F800BEDC4333354C0FFE58E54BF33
:040B26004FF58E22D7
:100B2A00EF14600F04701AED25E025E0FFE5895403
:100B3A00FB800BEDC4333354C0FFE58954BF4FF536
:020B4A008922FE
:100BA800EF14600B047014E58954FC4DF58922EDAF
:0C0BB800C454F0FFE58954CF4FF58922AA
:100BDB00EF14600A04700DECF58CEDF58A22ECF540
:050BEB008DEDF58B22E9
:100C0300EF14600904700BED24FF92A922ED24FF79
:030C130092AB227F
:10068500EF146029047050ED540170047F0180025D
:100695007F00EF24FFB392B9ED540260047F01801F
:1006A500027F00EF25E0FFE5B754FD8027ED5401FB
:1006B50070047F0180027F00EF24FFB392BBED54ED
:1006C5000260047F0180027F00EF33333354F8FF6B
:0806D500E5B754F74FF5B72219
:100B8B00EF14600C047012AF8CEFFEAD8AEDFF22F8
:0D0B9B00AF8DEFFEAD8BEDFF22E4FEFF22DB
:0F0C5E00EF146006047006A28D22A28F22C3221B
:0A03FB008C1C8D1D8B198A1A891BBA
:100405007521807520C3751FC9751E01E47525FF0B
:100415007524FFF523F52212000E7018AF21AE20CA
:10042500AD1FAC1E7B0CFAF9F81201178F218E2037
:100435008D1F8C1E7B407A42790F7800AF21AE204C
:10044500AD1FAC1E120117A804A905AA06AB07AE7D
:100455001CAF1DE4FCFD12008CC006C007AB19AA39
:100465001AA91B9000021200272401FFE433AB07F1
:10047500FAE4F9F8D007D0061201178F218E208DE6
:100485001F8C1EAF25AE24AD23AC22AB21AA20A91B
:100495001FA81EC31201A94004E4FEFF22E525247E
:0F04A50001FFE43524FEC3EF9521FFEE9520FE05
:0104B4002225
:10062C008F268B278A28892912000EFD120AD4AB3B
:10063C0027AA28A929900001120027FDAF26120A2B
:10064C006BAB27AA28A929900002120027FDAF2620
:10065C00120B6DAB27AA28A929900003120027FDC5
:10066C00AF26120AA1AB27AA28A9299000041200D0
:09067C0054FDACF0AF26020B4C5A
:100A6B00EF24FD601614601F24027029ED3333331D
:100A7B0054F8FFE58E54F74FF58E22ED25E025E077
:100A8B00FFE5D154FB800BEDC4333354C0FFE5D1EC
:060A9B0054BF4FF5D1220B
:100AD400EF24FD601514601C24027025ED25E0252B
:100AE400E0FFE58E54FB4FF58E22ED25E0FFE5D1C6
:100AF40054FD800AEDC43354E0FFE5D154DF4FF5D3
:020B0400D122FC
:100B6D00EF24FD600D1460102402701190FEA2EDB3
:0E0B7D00F02290FEA3EDF02290FEA4EDF022F7
:100B4C00EF24FD600E14601224027014ECF5D6ED47
:100B5C00F5D722ECF5D4EDF5D522ECF5D2EDF5D3A5
:010B6C002266
:100AA100EF24FD601314601C24027026ED25E0255F
:100AB100E0FFE5AF54FB8017EDC43354E0FFE5AF31
:100AC10054DF800BEDC4333354C0FFE5AF54BF4F47
:030AD100F5AF225C
:030C820001350039
:1009E60043BA80120003E4FB7D207F041201BAE4BF
:1009F600F508F509750A01F50B750C01FB7A007906
:100A0600087D887C131203418E0D8F0E7B007A00C1
:100A16007908E4FF1205C17D01E4FF120BF0120C08
:040A26008E53BA7FB2
:010A2A0022A9
:050C86001209E680FEEA
:03000B00020913D4
:10091300C0E0C0F0C083C082C0D075D000C000C0AA
:0D09230001C002C003C004C005C006C0072B
:100930000535E535B40A0A7D207F041209A1753515
:0109400000B6
:10094100D007D006D005D004D003D002D001D0000A
:0B095100D0D0D082D083D0F0D0E032B4
:1004C100020C86E493A3F8E493A34003F68001F2BF
:1004D10008DFF48029E493A3F85407240CC8C3333C
:1004E100C4540F4420C8834004F456800146F6DF0B
:1004F100E4800B0102040810204080900C7BE47E14
:10050100019360BCA3FF543F30E509541FFEE493FF
:10051100A360010ECF54C025E060A840B8E493A3C6
:10052100FAE493A3F8E493A3C8C582C8CAC583CAF1
:10053100F0A3C8C582C8CAC583CADFE9DEE780BEA9
:010C8500006E
:10000E00BB010689828A83E0225002E722BBFE02F0
:09001E00E32289828A83E4932223
:10002700BB010CE58229F582E5833AF583E022508E
:1000370006E92582F8E622BBFE06E92582F8E222D8
:0D004700E58229F582E5833AF583E49322F2
:10005400BB0110E58229F582E5833AF583E0F5F0EA
:10006400A3E0225009E92582F886F008E622BBFEC7
:100074000AE92582F8E2F5F008E222E5832AF5830D
:08008400E993F5F0A3E99322D2
:10008C00E88FF0A4CC8BF0A42CFCE98EF0A42CFC13
:10009C008AF0EDA42CFCEA8EF0A4CDA8F08BF0A491
:1000AC002DCC3825F0FDE98FF0A42CCD35F0FCEBF0
:1000BC008EF0A4FEA9F0EB8FF0A4CFC5F02ECD39B5
:0F00CC00FEE43CFCEAA42DCE35F0FDE43CFC2222
:1000DB0075F008758200EF2FFFEE33FECD33CDCCDC
:1000EB0033CCC58233C5829BED9AEC99E58298405F
:1000FB000CF582EE9BFEED9AFDEC99FC0FD5F0D63C
:10010B00E4CEFBE4CDFAE4CCF9A88222B800C1B965
:10011B000059BA002DEC8BF084CFCECDFCE5F0CBA3
:10012B00F97818EF2FFFEE33FEED33FDEC33FCEBDC
:10013B0033FB10D703994004EB99FB0FD8E5E4F997
:10014B00FA227818EF2FFFEE33FEED33FDEC33FC84
:10015B00C933C910D7059BE99A4007EC9BFCE99A78
:10016B00F90FD8E0E4C9FAE4CCFB2275F010EF2FBD
:10017B00FFEE33FEED33FDCC33CCC833C810D707BD
:10018B009BEC9AE899400AED9BFDEC9AFCE899F8F8
:0E019B000FD5F0DAE4CDFBE4CCFAE4C8F9228B
:1001A900EB9FF5F0EA9E42F0E99D42F0E89C45F0AC
:0101B9002223
:00000001FF
