:0300000002018A70
:0C018A00787FE4F6D8FD7581100201D1E9
:10000300EFB408004003020189900013F828287315
:1000130002002B0200580200850200B20200DF0238
:10002300010C020136020160EB1460141460191410
:10003300601C24036003020189EDF452945293225D
:10004300ED4294EDF4529322EDF452948003ED4289
:1000530094ED429322EB14601414601914601C2471
:10006300036003020189EDF45292529122ED429210
:10007300EDF4529122EDF452928003ED4292ED425F
:100083009122EB14601414601914601C24036003A0
:10009300020189EDF45296529522ED4296EDF45207
:1000A3009522EDF452968003ED4296ED429522EBB4
:1000B30014601414601914601C2403600302018982
:1000C300EDF452B252B122ED42B2EDF452B122ED4F
:1000D300F452B28003ED42B2ED42B122EB1460144C
:1000E30014601914601C24036003020189EDF452A7
:1000F300B352B422ED42B4EDF452B322EDF452B450
:100103008003ED42B4ED42B322EB14601114601688
:100113001460192403706FEDF452CA52C922ED42E0
:10012300CAEDF452C922EDF452CA8003ED42CAED7E
:1001330042C922EB14601114601614601924037071
:1001430045EDF452CC52CB22ED42CCEDF452CB220E
:10015300EDF452CC8003ED42CCED42CB22EB1460A4
:10016300111460161460192403701BEDF452E2524B
:10017300E122ED42E2EDF452E122EDF452E280039A
:07018300ED42E2ED42E12232
:100627008F0F8D10EB700302040CAD10AF0F120388
:0206370010228F
:10040C00EFB408005048900419F8282873020431FE
:10041C0002043602043B02044002044502044A0270
:10042C00044F02045490FE28802190FE29801C90D9
:10043C00FE2A801790FE2B801290FE2C800D90FED1
:0F044C002D800890FE2E800390FE2FE04DF022B1
:10031000EFB40800504D90031DF8282873020335F0
:1003200002033A02033F02034402034902034E025E
:10033000035302035890FE28802190FE29801C90D0
:10034000FE2A801790FE2B801290FE2C800D90FECE
:100350002D800890FE2E800390FE2FE0FFEDF4FE2E
:04036000EF5EF0223A
:100639008F0F8D10EB700302045BAD10AF0F120327
:02064900642229
:10045B00EFB408005048900468F828287302048011
:10046B0002048502048A02048F0204940204990296
:10047B00049E0204A390FE20802190FE21801C90FC
:10048B00FE22801790FE23801290FE24800D90FE9A
:0F049B0025800890FE26800390FE27E04DF0227A
:10036400EFB40800504D900371F8282873020389F4
:1003740002038E02039302039802039D0203A20266
:1003840003A70203AC90FE20802190FE21801C90E4
:10039400FE22801790FE23801290FE24800D90FE92
:1003A40025800890FE26800390FE27E0FFEDF4FEF2
:0403B400EF5EF022E6
:10064B008F0F8D10EB70030203B8AD10AF0F1204B8
:02065B00AA22D1
:1003B800EFB40800504D9003C5F82828730203DDF8
:1003C8000203E20203E70203EC0203F10203F6026E
:1003D80003FB02040090FE10802190FE11801C9007
:1003E800FE12801790FE13801290FE14800D90FE6E
:1003F80015800890FE16800390FE17E0FFEDF4FECE
:04040800EF5EF02291
:1004AA00EFB4080050489004B7F82828730204CF24
:1004BA000204D40204D90204DE0204E30204E802BC
:1004CA0004ED0204F290FE10802190FE11801C902F
:1004DA00FE12801790FE13801290FE14800D90FE7B
:0F04EA0015800890FE16800390FE17E04DF0225B
:10065D008F0B8D0CEB70030204F9AD0CAF0B120573
:02066D00462223
:1004F900EFB408005046900506F828287302051E37
:1005090002052302052802052D02053202053702DC
:10051900053C020541EDF4528022EDF4529022EDA2
:10052900F452A022EDF452B022EDF452C022EDF4BF
:0D05390052C822EDF452E822EDF452F822EF
:10054600EFB40800503E900553F828287302056B57
:1005560002056F02057302057702057B02057F021D
:100566000583020587ED428022ED429022ED42A0EE
:1005760022ED42B022ED42C022ED42C822ED42E811
:0505860022ED42F82205
:10058B00EFB40800503E900598F82828730205B088
:10059B000205B40205B80205BC0205C00205C4027F
:1005AB0005C80205CCED628022ED629022ED62A0BF
:1005BB0022ED62B022ED62C022ED62C822ED62E84C
:0505CB0022ED62F822A0
:10021600EFB408005077900223F828287302023BB7
:1002260002024602025102025C02026702027202E6
:10023600027D020288E5805D60037F01227F002245
:10024600E5905D60037F01227F0022E5A05D6003EB
:100256007F01227F0022E5B05D60037F01227F00DF
:1002660022E5C05D60037F01227F0022E5C85D6054
:10027600037F01227F0022E5E85D60037F01227F84
:100286000022E5F85D60037F01227F00227F0022C5
:1005D000EFB4080050379005DDF82828730205F5C0
:1005E0000205F80205FB0205FE02060102060402EE
:1005F000060702060AAF8022AF9022AFA022AFB05A
:1006000022AFC022AFC822AFE822AFF8227F00227B
:06068B0090FE01E4F022E4
:07067D0002080BB8010A039B
:10061000AD09AC08ED1D70011C144C70F7EF1F7094
:06062000011E144E70EAF9
:0106260022B1
:0D066F00AD0ADDFEEF1F70011E144E70F38A
:01067C00225B
:06068400010D20010E40F3
:1002960043BA80E4FBAD0D7F04120003E4FBAD0E10
:1002A6007F041200037B01AD0D7F041206277B013C
:1002B600AD0D7F041206397B01AD0D7F0412064B8E
:1002C6007B01AD0E7F041206277B01AD0E7F041263
:1002D60006397B01AD0E7F0412064B53BA7FAD0D76
:1002E6007F041204F9AD0E7F041204F97FF47E0137
:1002F600120610AD0D7F04120546AD0E7F041205E1
:0A030600467FF47E0112061080D439
:10019600020296E493A3F8E493A34003F68001F2E7
:1001A60008DFF48029E493A3F85407240CC8C3336A
:1001B600C4540F4420C8834004F456800146F6DF39
:1001C600E4800B010204081020408090067DE47E46
:1001D600019360BCA3FF543F30E509541FFEE4932E
:1001E600A360010ECF54C025E060A840B8E493A3F5
:1001F600FAE493A3F8E493A3C8C582C8CAC583CA20
:10020600F0A3C8C582C8CAC583CADFE9DEE780BED7
:01068A00006F
:00000001FF
