:0300000002018A70
:0C018A00787FE4F6D8FD75810D0201D1EC
:10000300EFB408004003020189900013F828287315
:1000130002002B0200580200850200B20200DF0238
:10002300010C020136020160EB1460141460191410
:10003300601C24036003020189EDF452945293225D
:10004300ED4294EDF4529322EDF452948003ED4289
:1000530094ED429322EB14601414601914601C2471
:10006300036003020189EDF45292529122ED429210
:10007300EDF4529122EDF452928003ED4292ED425F
:100083009122EB14601414601914601C24036003A0
:10009300020189EDF45296529522ED4296EDF45207
:1000A3009522EDF452968003ED4296ED429522EBB4
:1000B30014601414601914601C2403600302018982
:1000C300EDF452B252B122ED42B2EDF452B122ED4F
:1000D300F452B28003ED42B2ED42B122EB1460144C
:1000E30014601914601C24036003020189EDF452A7
:1000F300B352B422ED42B4EDF452B322EDF452B450
:100103008003ED42B4ED42B322EB14601114601688
:100113001460192403706FEDF452CA52C922ED42E0
:10012300CAEDF452C922EDF452CA8003ED42CAED7E
:1001330042C922EB14601114601614601924037071
:1001430045EDF452CC52CB22ED42CCEDF452CB220E
:10015300EDF452CC8003ED42CCED42CB22EB1460A4
:10016300111460161460192403701BEDF452E2524B
:10017300E122ED42E2EDF452E122EDF452E280039A
:07018300ED42E2ED42E12232
:10062A008F0C8D0D43BA80EBAD0DAF0C7005120423
:0A063A0006800312030A53BA7F2260
:10040600EFB408005048900413F828287302042B10
:1004160002043002043502043A02043F0204440294
:10042600044902044E90FE28802190FE29801C90EB
:10043600FE2A801790FE2B801290FE2C800D90FED7
:0F0446002D800890FE2E800390FE2FE04DF022B7
:10030A00EFB40800504D900317F828287302032F02
:10031A0002033402033902033E0203430203480282
:10032A00034D02035290FE28802190FE29801C90E2
:10033A00FE2A801790FE2B801290FE2C800D90FED4
:10034A002D800890FE2E800390FE2FE0FFEDF4FE34
:04035A00EF5EF02240
:100644008F0C8D0D43BA80EBAD0DAF0C7005120409
:0A06540055800312035E53BA7F22A3
:10045500EFB408005048900462F828287302047A23
:1004650002047F02048402048902048E02049302BA
:10047500049802049D90FE20802190FE21801C900E
:10048500FE22801790FE23801290FE24800D90FEA0
:0F04950025800890FE26800390FE27E04DF02280
:10035E00EFB40800504D90036BF828287302038306
:10036E0002038802038D02039202039702039C028A
:10037E0003A10203A690FE20802190FE21801C90F6
:10038E00FE22801790FE23801290FE24800D90FE98
:10039E0025800890FE26800390FE27E0FFEDF4FEF8
:0403AE00EF5EF022EC
:10065E008F0C8D0D43BA80EBAD0DAF0C70051203F0
:0A066E00B280031204A453BA7F22E5
:1003B200EFB40800504D9003BFF82828730203D70A
:1003C2000203DC0203E10203E60203EB0203F00292
:1003D20003F50203FA90FE10802190FE11801C901A
:1003E200FE12801790FE13801290FE14800D90FE74
:1003F20015800890FE16800390FE17E0FFEDF4FED4
:04040200EF5EF02297
:1004A400EFB4080050489004B1F82828730204C936
:1004B4000204CE0204D30204D80204DD0204E202E0
:1004C40004E70204EC90FE10802190FE11801C9041
:1004D400FE12801790FE13801290FE14800D90FE81
:0F04E40015800890FE16800390FE17E04DF02261
:100678008F088D09EB70030204F3AD09AF0812056A
:0206880040220E
:1004F300EFB408005046900500F828287302051849
:1005030002051D02052202052702052C0205310200
:10051300053602053BEDF4528022EDF4529022EDB4
:10052300F452A022EDF452B022EDF452C022EDF4C5
:0D05330052C822EDF452E822EDF452F822F5
:10054000EFB40800503E90054DF828287302056569
:1005500002056902056D0205710205750205790241
:10056000057D020581ED428022ED429022ED42A000
:1005700022ED42B022ED42C022ED42C822ED42E817
:0505800022ED42F8220B
:10058500EFB40800503E900592F82828730205AA9A
:100595000205AE0205B20205B60205BA0205BE02A3
:1005A50005C20205C6ED628022ED629022ED62A0D1
:1005B50022ED62B022ED62C022ED62C822ED62E852
:0505C50022ED62F822A6
:10021600EFB408005077900223F828287302023BB7
:1002260002024602025102025C02026702027202E6
:10023600027D020288E5805D60037F01227F002245
:10024600E5905D60037F01227F0022E5A05D6003EB
:100256007F01227F0022E5B05D60037F01227F00DF
:1002660022E5C05D60037F01227F0022E5C85D6054
:10027600037F01227F0022E5E85D60037F01227F84
:100286000022E5F85D60037F01227F00227F0022C5
:1005CA00EFB4080050379005D7F82828730205EFD2
:1005DA000205F20205F50205F80205FB0205FE0214
:1005EA000601020604AF8022AF9022AFA022AFB06C
:1005FA0022AFC022AFC822AFE822AFF8227F002282
:06068A00010A20010B40F3
:10060A00E4FDFCE4FBFAC3EB9FEA9E50070BBB0038
:0F061A00010A80F20DBD00010CBC13E7BD88E49E
:0106290022AE
:10029600E4FBAD0A7F04120003E4FBAD0B7F0412FE
:1002A60000037B01AD0A7F0412062A7B01AD0A7F9B
:1002B600041206447B01AD0A7F0412065E7B01AD83
:1002C6000B7F0412062A7B01AD0B7F041206447BCA
:1002D60001AD0B7F0412065EAD0A7F041204F3AD76
:1002E6000B7F041204F37F647E0012060AAD0A7FB8
:1002F60004120540AD0B7F041205407F647E001298
:04030600060A80D48F
:10019600020296E493A3F8E493A34003F68001F2E7
:1001A60008DFF48029E493A3F85407240CC8C3336A
:1001B600C4540F4420C8834004F456800146F6DF39
:1001C600E4800B010204081020408090068AE47E39
:1001D600019360BCA3FF543F30E509541FFEE4932E
:1001E600A360010ECF54C025E060A840B8E493A3F5
:1001F600FAE493A3F8E493A3C8C582C8CAC583CA20
:10020600F0A3C8C582C8CAC583CADFE9DEE780BED7
:010690000069
:00000001FF
