:04000000020029329F
:03000B00020140AF
:0100130032BA
:01001B0032B2
:030023000201A433
:06008200753D000200269E
:030026000200EAEB
:10008800120490752140752238E4F523F52475256E
:1000980002752601752703752801F529752A01902F
:1000A800002175F040120512752B00752C01752D75
:1000B80001752E01750F0190C3501209C5E582859F
:1000C80083F0F52F85F03075122B751300751440E9
:1000D800758200120A81751501758200120A67027D
:1000E80004931200887531317532327533337534A3
:1000F8003475353575363675373775383875393955
:10010800753A30753B21753C0012030D750A31753F
:100118000B00750C407509007582001202CE750A35
:1001280031750B00750C407509017582001202CEFD
:1001380012049012049380F8C020C0E0C0F0C0827E
:10014800C083C007C006C005C004C003C002C00108
:10015800C000C0D075D000750F0190C3501209C5FA
:10016800858215858316758200120BE6053D740A93
:10017800B53D0C751504758202120460753D00D0FA
:10018800D0D000D001D002D003D004D005D006D002
:1001980007D083D082D0F0D0E0D02032C020C0E099
:1001A800C0F0C082C083C007C006C005C004C00339
:1001B800C002C001C000C0D075D00012074BE58254
:1001C800600E751502758202120460120747C29804
:1001D800D0D0D000D001D002D003D004D005D006B2
:1001E800D007D083D082D0F0D0E0D0203212075987
:0401F8009000002251
:100D680030313233343536373839414243444546D9
:0A0D78003F065B4F666D7D077F6F3D
:1001FC007515FF7582001203417515807582021208
:10020C0003FA7515407582021203FA751520758272
:10021C00021204307515807582021204307582004A
:10022C001203CBAF82751580758202C0071203FAD8
:10023C00D007EF20E7DE22AF82C0071201FC751554
:10024C00407582021203FA7515207582021203FAA8
:10025C00D0078F15758200120341751580758202C7
:10026C001204307515807582021203FA9000010297
:10027C0004A6AF82C0071201FC75154075820212EC
:10028C0004307515207582021203FAD0078F15758C
:10029C0082001203417515807582021204307515A7
:1002AC00807582021203FA9000010204A6AF82E567
:1002BC0008700674804FFE800474C04FFE8E82025C
:1002CC000243AF82758206C007120243D00785092C
:1002DC00088F821202B9AD0AAE0BAF0C8D828E83E1
:1002EC008FF0120D48FC60188C820DBD00010EC001
:1002FC0007C006C00512027ED005D006D00780DCF0
:10030C002275823812024375820C120243758206E2
:0F031C001202437582011202439000280204A6C8
:100D820030313233343536373839414243444546BF
:10032B00AF82E50E7008850D158F820203FA850DDD
:10033B00158F82020430E582FF24FB4023EF2F90C0
:10034B00034E738008800A800C800E801085158008
:10035B0022851590228515A0228515B0228515E8DA
:10036B0022E582FF24FB50030203C7EF2F90037C8F
:10037B007380088013801E80298034E5155580B466
:10038B000100B3E433F58222E5155590B40100B3B7
:10039B00E433F58222E51555A0B40100B3E433F53F
:1003AB008222E51555B0B40100B3E433F58222E5A2
:1003BB001555E8B40100B3E433F5822275820022AF
:1003CB00E582FF24FB4024EF2F9003D87380088035
:1003DB000A800C800E801085808222859082228577
:1003EB00A0822285B0822285E8822275820022E5D6
:1003FB0082FF24FB402EEF2F900407738008800CA4
:10040B00801080148018E515F4528022E515F45203
:10041B009022E515F452A022E515F452B022E51511
:10042B00F4FF52E822E582FF24FB4028EF2F9004D3
:10043B003D738008800B800E80118014E51542807F
:10044B0022E515429022E51542A022E51542B02285
:10045B00E51542E822E582FF24FB4028EF2F9004AC
:10046B006D738008800B800E80118014E5156280FF
:10047B0022E515629022E51562A022E51562B022F5
:05048B00E51562E82206
:06005800E478FFF6D8FD7C
:10049000C2AF22D2AF2290007B228E050000000066
:1004A0000000DDF82222C005C006C007C083C0825C
:1004B000120496858206858307D082D083C374FF99
:1004C0009582F58274FF9583F583E5825583F46008
:1004D0000E12049AA3E5825583F400000070F2D056
:1004E00007D006D0052222AE82AF83EE24FFFCEFB8
:0C04F00034FFFD8C068D07EC4D70F022EF
:100036007900E94400601B7A00900DA2780175A052
:1000460000E493F2A308B8000205A0D9F4DAF27529
:02005600A0FF09
:1004FC00AF82747F5587FEEF0354804EF58722E55B
:10050C008224FF929C2285823E85833F85F0407435
:10051C0005253EFAE4353FFBAC408A828B838CF098
:10052C00120D48F5821207D17406253EFAE4353FC8
:10053C00FBAC408A828B838CF0120D48F58212073B
:10054C00D87408253EFAE4353FFBAC408A828B8395
:10055C008CF0120D48F5821204FC7407253EFAE467
:10056C00353FFBAC408A828B838CF0120D48F582B0
:10057C001207AC7409253EFAE4353FFBAC408A8285
:10058C008B838CF0120D48F58212050B7404253EFA
:10059C00FAE4353FFBAC408A828B838CF0120D4819
:1005AC00F582C004C003C0021207BCD002D003D035
:1005BC00048A828B838CF0120D48FFBF01028006E7
:1005CC00BF020280612275410075420075430075BF
:1005DC004402853E82853F838540F0120D48FCA382
:1005EC00120D48FDA3120D48FEA3120D48FF754FC6
:1005FC00018C828D838EF0EF12068EE5828583F05E
:10060C00F54585F046751500758203120982751241
:10061C0041751300751440758201120A817515011C
:10062C00758201020A6775470075480075490075A7
:10063C004A30E4F54BF54C853E82853F838540F08E
:10064C00120D48FCA3120D48FDA3120D48FEA31277
:10065C000D48FF754F028C828D838EF0EF12068E43
:10066C00E5828583F0F54D85F04E75150175820395
:10067C0012098290004775F04012085D75820102E4
:10068C000856AC82AD83AEF0FF7B007401B54F020F
:10069C00800B7402B54F03020718020738E5873048
:1006AC00E735C374249C74F49DE49EE49F5004903D
:1006BC000000228C158D168E178F1890F424E4F5FB
:1006CC00F0120CE385825085835185F052F553AAC4
:1006DC0050C3E49AFB8055C374129C747A9DE49EBB
:1006EC00E49F5004900000228C158D168E178F18E5
:1006FC00907A12E4F5F0120CE385825085835185D3
:10070C00F052F553AA50C3E49AFB80208C158D1639
:10071C008E178F1890B8D875F005E4120CE3AC82E4
:10072C00AD83C3E49CF582E49DF583227F008B06A8
:10073C00E44203EE42078B828F832285998222A2A8
:10074C0098E433F58222A299E433F58222858299CA
:10075C0010990280FB22E582FFC4540F900D9293F6
:10076C00F582C007120759D00753070F7E00EF24FC
:10077C0092F582EE340DF583E493F582020759ADC0
:10078C0082AE83AFF08D828E838FF0120D48FC60A9
:10079C000E8C9910990280FB0DBD00E90E80E622AB
:1007AC00AF82E598543FFEEF030354C04EF59822F8
:1007BC00AF82BF010453C8CF22BF0208E5C854CF93
:1007CC004430F5C822E58224FF92AC22E582FF5426
:1007DC0001B40100B3E43324FF92BC74EF55B7FEAF
:1007EC00EF035401B40100B3E433C454F04EF5B735
:0107FC0022DA
:100D920030313233343536373839414243444546AF
:1007FD00AE82AF838E158F16751700751800900099
:10080D000CE4F5F0120C75AC82AD83AEF0FF7515EE
:10081D000CE4F516F517F5188C828D838EF0EF121A
:10082D000CE3AC82AD83AEF0FFC3EC94FFED94FF0F
:10083D00EE9400EF9400400490000022C3E49CF578
:10084D0082E49DF58322C2CF22E58224FF92CA2243
:10085D00AD82AE83AFF0120D48F582C007C006C061
:10086D000512095CD005D006D00774032DFAE43EBD
:10087D00FB8F048A828B838CF0120D48F582C007A2
:10088D00C006C005120966D005D006D00774062D26
:10089D00FAE43EFB8F048A828B838CF0120D48FAAA
:1008AD00A3120D48FB8A828B83C007C006C00512B8
:1008BD000970D005D006D00774042DFAE43EFB8FE5
:1008CD00048A828B838CF0120D48FAA3120D48FB1B
:1008DD008A828B83C007C006C005120979D005D066
:1008ED0006D00774012DFAE43EFB8F048A828B83B8
:1008FD008CF0120D48F582C007C006C0051209998B
:10090D00D005D006D00774022DFDE43EFE8D828EFB
:10091D00838FF0120D48F5820209A0AFCB7E00AC9B
:10092D00CA7D00EC4206ED42078E828F8322AFCD49
:10093D007E00ACCC7D00EC4206ED42078E828F83AB
:10094D0022A291E433F58222A2CFE433F58222AFC5
:10095D0082E5C854CF4FF5C822AF82E5C854CE4FBB
:10096D00F5C822AE82AF838FCB8ECA22AE82AF8303
:10097D008FCD8ECC22E582FF30E006E51524FF9267
:10098D00CDEF30E106E51524FF92CC22E58224FF60
:10099D0092AD22E582035401B40100B3E433FF2488
:1009AD00FF92BD74DF55B7FEEFC42354E04EF5B78B
:1009BD0022E58224FF92CB22AE82AF83E4F510F5BF
:1009CD0011E50F24FC4034E50F75F003A49009DE0A
:1009DD00730209EA0209F20209FA020A027510FF0E
:1009ED0075111F80167510FF7511FF800E7510FFA4
:1009FD0075110080067510FF7511008E158F167517
:100A0D00170075180090000CE4F5F0120C75AA8211
:100A1D00AB83AEF0FF75150CE4F516F517F5188AD6
:100A2D00828B838EF0EF120CE3AA82AB83AEF0FFC4
:100A3D00A810A9117C007D00C3EA98EB99EE9CEFFC
:100A4D009D400490000022AC10AD110CBC00010DB6
:100A5D00ECC39AF582ED9BF58322AF82BF00028035
:100A6D0005BF010F8007E51524FF928C22E51524A3
:100A7D00FF928E22AF82AC12AD13AE148C828D8399
:100A8D008EF0120D48F5158F82C007C006C005C047
:100A9D0004120B95D004D005D006D00774032CF9A1
:100AAD00E43DFA8E0389828A838BF0120D48F51589
:100ABD008F82C007C006C005C004120BC0D004D081
:100ACD0005D006D00774042CF9E43DFA8E03898213
:100ADD008A838BF0120D48F515A3120D48F5168F6C
:100AED0082C007C006C005C004120BE6D004D005B5
:100AFD00D006D00774012CF9E43DFA8E0389828A61
:100B0D00838BF0120D48F5158F82C007C006C00506
:100B1D00C004120C00D004D005D006D00774022CEE
:100B2D00FCE43DFD8C828D838EF0120D48F5158F02
:100B3D0082020C1AAF82BF00028005BF012880130C
:100B4D00AF8C7E00AC8A7D00EC4206ED42078E82B2
:100B5D008F8322AF8D7E00AC8B7D00EC4206ED4283
:100B6D00078E828F832290000022AF82BF00028009
:100B7D0005BF01108007A28DE433F58222A28FE418
:100B8D0033F5822275820022AF82BF00028005BF3D
:100B9D000120800F74FB5589FFE51525E025E04FF9
:100BAD00F5892274BF5589FFE515030354C0FE4F27
:100BBD00F58922AF82BF00028005BF011B800BE5C6
:100BCD008954FCFFE5154FF58922E58954CFFFE5E2
:100BDD0015C454F0FE4FF58922AF82BF0002800587
:100BED00BF010F800785168C85158A2285168D8588
:100BFD00158B22AF82BF00028005BF010F8007E574
:100C0D001524FF92A922E51524FF92AB22AF82BFD6
:100C1D0000028005BF01508028E5155401B4010084
:100C2D00B3E43324FF92B974FD55B7FFE5150354B2
:100C3D0001B40100E433B40100E43325E04FF5B70E
:100C4D0022E5155401B40100B3E43324FF92BB74C3
:100C5D00F755B7FFE515035401B40100B3E433C4F0
:100C6D000354F8FE4FF5B722AAF0FBE5828515F087
:100C7D00A4FCADF0E5838515F0A42DFDE435F0FE63
:100C8D00E5828516F0A42DFDE5F03EFEE433FFEA86
:100C9D008515F0A42EFEE5F03FFFE5838516F0A443
:100CAD002EFEE5F03FFFE5828517F0A42EFEE5F060
:100CBD003FFFEB8515F0A42FFFEA8516F0A42FFF5B
:100CCD00E5838517F0A42FFFE5828518F0A42F8EFC
:060CDD00F08D838C8222E1
:10005E007800E84400600A790175A000E4F309D83D
:10006E00FC7800E84400600C7900900001E4F0A3F5
:04007E00D8FCD9FAD7
:100CE300FB7A20E4FCFDFEFFE5822582F582E583A5
:100CF30033F583E5F033F5F0EB33FB4017DAE980A6
:100D030042E5822582F582E58333F583E5F033F509
:100D1300F0EB33FBEC33FCED33FDEE33FEEF33FF4F
:100D2300EC9515ED9516EE9517EF95184013EC9588
:100D330015FCED9516FDEE9517FEEF9518FF438212
:050D430001DABEEB2205
:0D002900758153120D64E58260030200260C
:100D480020F71430F6148883A88220F507E6A883D4
:100D580075830022E280F7E49322E0227582002264
:00000001FF
